:03000000020513E3
:0C051300787FE4F6D8FD75812002055ABF
:10071E00011200010F01010B07010C3B0109000141
:10072E001117010D00010800010A00011000010E51
:04073E00FF0117FFA1
:10081A00538E3FE4F589D2AFD2A9758C3C758AAF65
:03082A00D28C224B
:10059F00E5127016AC11120197AB16AA15A914A883
:1005AF0013120114602A40288021E50C7006E5091A
:1005BF0070028017E50C7018E509C394014011E52E
:1005CF0009D39405500AE50AB40105750A018003A1
:1005DF00E4F50AE510650A6013E50AB401047D101D
:0D05EF008002E4FD7F05120840850A1022FD
:03000B0002047D6F
:10047D00C0E0C0F0C083C082C0D075D000C000C045
:10048D0001C002C003C004C005C006C007E50DF4DD
:10049D006004050D8003750D00E50D20E0051207C4
:1004AD00DE8F09E509700E1207F28F0CE50C700551
:1004BD001208068F0BE50D75F01484E5F0700B1224
:1004CD0005FC8F168E158D148C1312059FE50A7081
:1004DD0004F5088016E50D20E011E50AB4010CE5E0
:1004ED000870047F0180027F008F08D007D006D0EE
:1004FD0005D004D003D002D001D000D0D0D082D00E
:06050D0083D0F0D0E032C3
:10063900750EFFE50C7011E509C39400400AE50940
:10064900D394055003530EFEE5127003530EFDE5D6
:1006590008B40103530EFBE50E6517600AAD0E7F62
:0806690004120840850E17225F
:1002AF00120639E50F24FE607114700302036D14FA
:1002BF007003020391240360030203D8E4FFFE7D61
:1002CF00207C41AB16AA15A914A81312000E120117
:1002DF00CB8E188F197D0A7F011206CF7D017F0209
:1002EF001206CFAE18AF197C007D6412024CAD0719
:1002FF007F061206CFAE18AF197C007D0A12024C92
:10030F007C007D0A12024C7F071206A5AE18AF19AA
:10031F007C007D0A12024C0203D37D0A7F01120674
:10032F00CF7D027F021206CFE50B75F00A84FD7FA9
:10033F00041206CFE50B75F00A84ADF07F051206A7
:10034F00CF7D0B7F061206CFE50C75F00A84FD7F7B
:10035F00071206CFE50C75F00A84ADF080667D0AB2
:10036F007F011206CF7D037F021206CFE51175F0D4
:10037F000A84FD7F071206CFE51175F00A84ADF0F0
:10038F0080427D0A7F011206CF7D027F021206CFC7
:10039F00E50C75F00A84FD7F041206CFE50C75F0AD
:1003AF000A84ADF07F051206CF7D0B7F061206CFB4
:1003BF00E50975F00A84FD7F071206CFE50975F090
:0903CF000A84ADF07F081206CF8C
:0103D8002202
:080877007F757EB8DEFEDFFC98
:01087F002256
:1003D900C2B3D2B4D2B5D2B220B51C12087720B5B7
:1003E90016E50FC394035004050F8003750F012010
:1003F900B5051202AF80F820B41CE50FB40317123B
:10040900087720B411E511C394635002051120B493
:10041900051202AF80F8C2B2D2B4D2B5D2B320B5B8
:100429001D12087720B517E51260047F0080027F4E
:10043900018F12E4F50A20B5051202AF80F820B445
:1004490032E50F6401602C12087720B426E50FB459
:100459000309E511D3940A40021511E50FB402030B
:10046900750F0420B4051202AF80F8E50FB4040338
:04047900750F0222D7
:0E0853007DFF7F04120840E4FD7F050208408F
:1007B6001208531205FC12081A1207431202AF124E
:0407C60003D980F8DB
:10082D00E4FEC297EF1392A3EFC313FFD2970EBE50
:02083D0008F0C1
:01083F002296
:1007CA00C29300C29700D2930012082DAF051208F7
:0407DA002DC2932277
:10067100E4FDC29300C29700D2930012082DE4FF5B
:10068100C297EDC313FD30A303430580D2970FBF7B
:1006910008EEC29300C29700D29700C2A300D2A372
:0306A10000AF05A2
:0106A4002233
:10074300E4FD7F8E1207CA7F801207CA7D597F821C
:100753001207CA7D077F841207CA7D807F8E020736
:01076300CACB
:1007DE007F81120671EFC4540F75F00AA4FEEF5418
:0307EE000F2EFFCC
:0107F10022E5
:1007F2007F83120671EFC4540F75F00AA4FEEF5402
:030802000F2EFFB7
:0108050022D0
:100806007F85120671EFC4540F75F00AA4FEEF54EB
:030816000F2EFFA3
:0108190022BC
:040782007F057E0071
:10078600EF1FAA0670011E4A600BE4FDEDC3940C30
:0507960050EE0D80F79C
:01079B00223B
:02076400A907E3
:10076600E4FBC294E9139294120782D294E9C3136C
:0C077600F90BBB08ED7F057E0002078632
:10079C00E4FBC294ECC313FCD29430940343048066
:0907AC001207820BBB08EBAF043D
:0107B5002221
:1006F700C201D2947F0C7E00120786C2947F507E7F
:1007070000120786D2947F0A7E00120786A294926F
:0607170001120782A2019D
:01071D0022B9
:1005FC001206F77FCC1207647F441207641206F7C9
:10060C007FCC1207647FBE12076412079CA90712E5
:10061C00079CEFFE7C00E429FFEC3EFEAD07FCE4FA
:0D062C00120192E4FBFA7980783D02000E85
:0C086100C0F9A4B0999282F88090C1BF49
:0A086D00EF1F70011E144E70F722F9
:10084000EFC43354E0FFE5A0541F4FF5A08D805353
:03085000A01F22C4
:1006CF00AE05EF14FF7401A807088002C333D8FCEE
:1006DF00FD7F06120840EE90086193FD7F07120818
:0806EF00407FE87E0302086D64
:1006A500AE05EF14FF7401A807088002C333D8FC18
:1006B500FD7F06120840EE900861932480FD7F07B8
:0A06C5001208407FE87E0302086D72
:10000E00EC4D6011E8497017ED33EC3304600DE4EC
:10001E00FCFFFEFD22E933E8330470F802023712CA
:10002E00020258046009E4CC2481500628500902CB
:10003E00024128400302023EC0E0EB4A7044B98000
:10004E0006D0E0FB02022DEF4E701CBD8008EBFFC8
:10005E00EAFEE9FD80EBE98DF0A4FEE5F00200F783
:10006E00E9CDF9EAFEEBFFEF89F0A4FCE5F0CE89CD
:10007E00F0A42EFFE435F0CD89F0A42DFEE435F08A
:10008E008067EF4E7005BD80D780C3EF8BF0A4ACB8
:10009E00F0EE8BF0A42CFCE435F0F8EF8AF0A42CF3
:1000AE00E5F038FCE433CB8DF0A42CFCE5F03BF806
:1000BE00EE8AF0A42CFCE5F038F8E433CF89F0A4F6
:1000CE002CFCE5F038CF3400CE89F0A42FFFE5F0FC
:1000DE003EFEE433C98DF0A42EFEE5F039CD8AF054
:1000EE00A42FFFE5F03EFEE43DFD33D0E0FB5007CC
:1000FE000BBB000F020241EC2CFCEF33FFEE33FE84
:06010E00ED33FD020219B1
:1001140074F8CC6480CCC86480C8F58204604FC392
:10012400EB9FF5F0EA9E42F0E99D42F0E89C45F031
:10013400603C501DE5825FFFE582D313CB5BCBF4BB
:100144002B5582FB50280ABA002409B900200880E4
:100154001DE5825BFBE582D313CF5FCFF4C3132F7E
:100164005582FF50090EBE00050DBD00010CC3EB06
:100174009FF5F0EA9E42F0E99D42F0E89C45F0606C
:0901840007CC4820E701B3EC228E
:10018D0075F020800E75F010800575F0087D007EED
:10019D00007F003392D530D5031202A1EC3340100D
:1001AD00EF33FFEE33FEED33FDEC33FCD5F0ED22F6
:0E01BD00E5F0247EA2D513CC92E7CDCEFF2232
:1001CB00EDD2E7CD33EC3392D524814006E4FFFE2C
:1001DB00FDFC22FCE4CFCECDCC24E0501174FF808B
:1001EB00EDC3CC13CCCD13CDCE13CECF13CF047028
:0701FB00F030D5DE0202A185
:10020200E9D2E7C933E833F892D5EDD2E7CD33EC42
:0702120033FC5002B2D522BB
:10021900EC30E7100FBF000C0EBE00080DBD000446
:100229000BEB6014A2D5EB13FCED92E7FD2274FFF2
:10023900FCFDFEFF22E480F8A2D574FF13FC7D804B
:03024900E480EF5F
:10051F000207B6E493A3F8E493A34003F68001F235
:10052F0008DFF48029E493A3F85407240CC8C333DD
:10053F00C4540F4420C8834004F456800146F6DFAC
:10054F00E4800B010204081020408090071EE47E17
:10055F00019360BCA3FF543F30E509541FFEE493A1
:10056F00A360010ECF54C025E060A840B8E493A368
:10057F00FAE493A3F8E493A3C8C582C8CAC583CA93
:10058F00F0A3C8C582C8CAC583CADFE9DEE780BE4B
:0107420000B6
:10024C00BC000BBE0029EF8DF084FFADF022E4CC96
:10025C00F875F008EF2FFFEE33FEEC33FCEE9DEC5F
:10026C00984005FCEE9DFE0FD5F0E9E4CEFD22EDA5
:10027C00F8F5F0EE8420D21CFEADF075F008EF2FEF
:10028C00FFED33FD4007985006D5F0F222C398FDE0
:05029C000FD5F0EA227D
:0E02A100C3E49FFFE49EFEE49DFDE49CFC226E
:00000001FF
