:0300000002058F67
:0C058F00787FE4F6D8FD7581190205D6CE
:0F0923000111010112000110FF010801010A0179
:10087200758906538E3FD2AFD2A9D2AB758CFF7564
:0D0882008AFF758D3C758BAFD28CD28E2213
:03000B0002000EE2
:0D000E00C0E0050CE50C7002050BD0E032DF
:03001B0002069F3B
:10069F00C0E0C0F0C083C082C0D075D000C000C021
:1006AF0001C002C003C004C005C006C007050FE5A6
:1006BF000F75F00A84E5F0701612084C8F13E512CF
:1006CF0070057509668003851309AF091208F8E5EF
:1006DF000F75F01484E5F0700A850B0D850C0EF57F
:1006EF000BF50CE50FB4FF03750F00D007D006D044
:1006FF0005D004D003D002D001D000D0D0D082D00A
:06070F0083D0F0D0E032BF
:10061B007510FFE5086076E51160055310FE800349
:10062B005310FDAC13E4120247E4FBFA79997842BC
:10063B001201C460025014AC13E4120247E4FBFA3B
:10064B0079FF78421201C460025015AC13E4120218
:10065B00477B007A80793278431201C460025003E1
:10066B005310FBC3E50E94E8E50D9403400AE50E29
:10067B009488E50D9413400BC3E50E9410E50D948F
:10068B002740035310F7E51260035310EFAD107FB3
:04069B00040209103C
:1004430012061BE50A7003020587E5111470030207
:10045300051604600302058E7D0A7F01120824AE8F
:100463000DAF0EE4FCFD7BA07A867901F8D312036D
:100473005F5012AE0DAF0EE4FCFDF812078AAD0714
:100483007F03120824C3E50E9410E50D942740174B
:10049300AE0DAF0E7C277D101202FC7C007D0A128C
:1004A30002FC7F04120824C3E50E94E8E50D9403CF
:1004B3004017AE0DAF0E7C037DE81202FC7C007D7D
:1004C3000A1202FC7F05120824C3E50E9464E50DAD
:1004D30094004017AE0DAF0E7C007D641202FC7CCD
:1004E300007D0A1202FC7F06120824C3E50E940A5B
:1004F300E50D94004017AE0DAF0E7C007D0A12028D
:10050300FC7C007D0A1202FC7F07120824AE0DAFAB
:100513000E8065AC13E4120247E4FBFA794C78428F
:100523001201278F198E188D178C16E4FFFE7DC8D4
:100533007C42AB19AA18A917A81612001E12027B37
:100543008E148F157D0B7F01120824AE14AF157C1A
:10055300007D641202FCAD077F061207FAAE14AFEA
:10056300157C007D0A1202FC7C007D0A1202FC7FCE
:1005730007120824AE14AF157C007D0A1202FC7F1B
:0B058300080208247DFF7F071209100A
:01058E00224A
:080980007F757EB8DEFEDFFC8E
:01098800224C
:1007150020B31A12098020B314E51160047F00800C
:10072500027F018F1120B30512044380F820B21A0D
:1007350012098020B214E51260047F0080027F0157
:100745008F1220B20512044380F820B11A120980D5
:1007550020B114E50860047F0080027F018F082026
:10076500B10512044380F820B01A12098020B01494
:10077500E50A60047F0080027F018F0A20B0051220
:05078500044380F8228E
:0E094200E4FD7F051209107DFF7F04020910FD
:0E09500012094212087212071512044380F8B1
:0408AC00D2A07F0552
:1008B000000000000000000000000000000000AE8A
:0608C000071FEE70EB22A1
:0F093300D2A11208ACC2A17F051208B0C2A02247
:0C095E00C2A11208ACD2A17F050208B0B3
:0207CE00AD0775
:1007D000E4FCC2A07F051208B0ED30E704D2A1808E
:1007E00002C2A17F051208B0D2A0ED25E0FD7F0571
:0907F0001208B00CBC08DBC2A029
:0107F90022DD
:10088F00E4FC1208ACED25E0FD30A103430501C2E5
:0C089F00A07F051208B00CBC08E8AF05F3
:0108AB00222A
:0808C6001209337F901207CEE6
:1008CE001208ACA2A1E433FDC2A07F051208B0AF9E
:0108DE000514
:0108DF0022F6
:1008E000C2A0EF24FF92A17F051208B01208ACC28B
:0808F000A0D2A17F050208B0AF
:1008F800AB071208C67F411207CE1208CEAF03120B
:0809080007CE1208CE02095EC1
:10084C001208C67F431207CE1208CE1209337F91CD
:10085C001207CE1208CE12088FAD077F011208E0E6
:05086C0012095EAF055A
:010871002264
:0C096A00C0F9A4B0999282F880908EC170
:0A097600EF1F70011E144E70F722EF
:100910008D80EFC43354E0FFE5A0541F4FF5A05382
:03092000A01F22F3
:10082400AE05EF14FF7401A807088002C333D8FC97
:10083400FD7F06120910EE90096A93FD7F071209E5
:08084400107FE87E0302097633
:1007FA00AE05EF14FF7401A807088002C333D8FCC2
:10080A00FD7F06120910EE90096A932480FD7F0786
:0A081A001209107FE87E0302097640
:10001E00EC4D6011E8497017ED33EC3304600DE4DC
:10002E00FCFFFEFD22E933E8330470F80202E7120A
:10003E0002B258046009E4CC24815006285009020B
:10004E0002F12840030202EEC0E0EB4A7044B98090
:10005E0006D0E0FB0202DDEF4E701CBD8008EBFF08
:10006E00EAFEE9FD80EBE98DF0A4FEE5F002010762
:10007E00E9CDF9EAFEEBFFEF89F0A4FCE5F0CE89BD
:10008E00F0A42EFFE435F0CD89F0A42DFEE435F07A
:10009E008067EF4E7005BD80D780C3EF8BF0A4ACA8
:1000AE00F0EE8BF0A42CFCE435F0F8EF8AF0A42CE3
:1000BE00E5F038FCE433CB8DF0A42CFCE5F03BF8F6
:1000CE00EE8AF0A42CFCE5F038F8E433CF89F0A4E6
:1000DE002CFCE5F038CF3400CE89F0A42FFFE5F0EC
:1000EE003EFEE433C98DF0A42EFEE5F039CD8AF044
:1000FE00A42FFFE5F03EFEE43DFD33D0E0FB5007BC
:10010E000BBB000F0202F1EC2CFCEF33FFEE33FEC3
:06011E00ED33FD0202C9F1
:100124000202F1EC5D046005E8590470030202E781
:100134001202B2580460F6EC4860F2EC7004FDFE62
:10014400FF22C860DB2481C85009C39860025006AE
:100154000202EE9850CAF582E9294B4A7005AB8237
:100164000202DD75F0007C1A7880C3EF9BEE9AEDF5
:1001740099400DC3EF9BFFEE9AFEED99FDE842F026
:10018400DC23ACF0D0E0FFD0E0FED0E0FDAB822079
:10019400E7101BEB60BAEC2CFCEF33FFEE33FEED03
:1001A40033FD0202C9E803F830E705C0F075F0003A
:1001B400EF2FFFEE33FEED33FD40B830E7C280AAE7
:1001C40074F8CC6480CCC86480C8F58204604FC3E2
:1001D400EB9FF5F0EA9E42F0E99D42F0E89C45F081
:1001E400603C501DE5825FFFE582D313CB5BCBF40B
:1001F4002B5582FB50280ABA002409B90020088034
:100204001DE5825BFBE582D313CF5FCFF4C3132FCD
:100214005582FF50090EBE00050DBD00010CC3EB55
:100224009FF5F0EA9E42F0E99D42F0E89C45F060BB
:0902340007CC4820E701B3EC22DD
:10023D0075F020800E75F010800575F0087D007E3C
:10024D00007F003392D530D503120351EC334010AB
:10025D00EF33FFEE33FEED33FDEC33FCD5F0ED2245
:0E026D00E5F0247EA2D513CC92E7CDCEFF2281
:10027B00EDD2E7CD33EC3392D524814006E4FFFE7B
:10028B00FDFC22FCE4CFCECDCC24E0501174FF80DA
:10029B00EDC3CC13CCCD13CDCE13CECF13CF047077
:0702AB00F030D5DE02035123
:1002B200E9D2E7C933E833F892D5EDD2E7CD33EC92
:0702C20033FC5002B2D5220B
:1002C900EC30E7100FBF000C0EBE00080DBD000496
:1002D9000BEB6014A2D5EB13FCED92E7FD2274FF42
:1002E900FCFDFEFF22E480F8A2D574FF13FC7D809B
:0302F900E480EFAF
:10059B00020950E493A3F8E493A34003F68001F21D
:1005AB0008DFF48029E493A3F85407240CC8C33361
:1005BB00C4540F4420C8834004F456800146F6DF30
:1005CB00E4800B0102040810204080900923E47E94
:1005DB00019360BCA3FF543F30E509541FFEE49325
:1005EB00A360010ECF54C025E060A840B8E493A3EC
:1005FB00FAE493A3F8E493A3C8C582C8CAC583CA17
:10060B00F0A3C8C582C8CAC583CADFE9DEE780BECE
:0109320000C4
:1002FC00BC000BBE0029EF8DF084FFADF022E4CCE6
:10030C00F875F008EF2FFFEE33FEEC33FCEE9DECAE
:10031C00984005FCEE9DFE0FD5F0E9E4CEFD22EDF4
:10032C00F8F5F0EE8420D21CFEADF075F008EF2F3E
:10033C00FFED33FD4007985006D5F0F222C398FD2F
:05034C000FD5F0EA22CC
:10078A00C2D5E830E70FB2D5E4C39BFBE49AFAE49A
:10079A0099F9E498F8EC30E717B2D51207C01203BA
:1007AA00B1E4C39BFBE49AFAE499F9E498F880036C
:1007BA001203B130D50DE4C39FFFE49EFEE49DFD14
:0407CA00E49CFC228D
:0E035100C3E49FFFE49EFEE49DFDE49CFC22BD
:10035F00EB9FF5F0EA9E42F0E99D42F0EC6480C815
:06036F0064809845F022B5
:1003750075F008758200EF2FFFEE33FECD33CDCC3F
:1003850033CCC58233C5829BED9AEC99E5829840C2
:100395000CF582EE9BFEED9AFDEC99FC0FD5F0D69F
:1003A500E4CEFBE4CDFAE4CCF9A88222B800C1B9C9
:1003B5000059BA002DEC8BF084CFCECDFCE5F0CB07
:1003C500F97818EF2FFFEE33FEED33FDEC33FCEB40
:1003D50033FB10D703994004EB99FB0FD8E5E4F9FB
:1003E500FA227818EF2FFFEE33FEED33FDEC33FCE8
:1003F500C933C910D7059BE99A4007EC9BFCE99ADC
:10040500F90FD8E0E4C9FAE4CCFB2275F010EF2F20
:10041500FFEE33FEED33FDCC33CCC833C810D70720
:100425009BEC9AE899400AED9BFDEC9AFCE899F85B
:0E0435000FD5F0DAE4CDFBE4CCFAE4C8F922EE
:00000001FF
