:030000000203D127
:0C03D100787FE4F6D8FD75812002041846
:1006F600010F1E010E14011401010D01010CFF0171
:020706000B01E5
:1006E300E4F589538E3FD2AFD2A9758C3C758AAF9E
:0306F300D28C2284
:03000B0002031FCE
:10031F00C0E0C0F0C083C082C0D075D000C000C0A4
:10032F0001C002C003C004C005C006C00705081203
:10033F00045DE50875F00584E5F07049AC0F120116
:10034F0097AB13AA12A911A810120114600640044A
:10035F007FCC802EAC0FE4120197AB13AA12A91118
:10036F00A81012011460025017AC0EE4120197ABE3
:10037F0013AA12A911A81012011440047F99800228
:10038F007F6612066812045DE5085407700E1204AA
:10039F00E28F138E128D118C1012045DE508B4FFDD
:1003AF000375080012045DD007D006D005D004D025
:1003BF0003D002D001D000D0D0D082D083D0F0D0E3
:0203CF00E0321A
:10053F00750CFFAC0FE4120197AB13AA12A911A807
:10054F001012011460074005530CFE8030AC0FE40D
:10055F00120197AB13AA12A911A81012011460026D
:10056F005018AC0EE4120197AB13AA12A911A810E0
:10057F001201144005530CFD8003530CFBE50B7067
:0B058F0003530CF7AD0C7F04020709BA
:10045D0012053FE50D24FE602E047072AF13AE122F
:10046D00AD11AC101201CB8F1A7D0A7F011205ED73
:10047D00E51AC3940A400CE51A75F00A84FD7F074E
:10048D001205EDE51A803C7D0B7F011205EDE50FA0
:10049D00C3940A400CE50F75F00A84FD7F04120524
:1004AD00EDE50F75F00A84ADF07F051205EDE50E53
:1004BD00C3940A400CE50E75F00A84FD7F07120502
:1004CD00EDE50E75F00A84ADF07F081205ED7D0C9B
:0504DD007F080205ED9F
:080760007F757EB8DEFEDFFCB0
:01076800226E
:10025A0020B33912076020B333E50DB4010E750DD2
:10026A0002850F0A850E097514018018750D01E5BE
:10027A000ED3950F400BE4F50B850A0F85090E8006
:10028A0003750B0120B30512045D80F820B21B121E
:10029A00076020B215E514B40105751402800375D0
:1002AA00140120B20512045D80F820B132E50D6414
:1002BA0002702C12076020B126E514B4010BE50E7A
:1002CA00D394625004050E800EE514B40209E50FBA
:1002DA00D394625002050F20B10512045D80F82004
:1002EA00B032E50D6402702C12076020B026E514C6
:1002FA00B4010BE50EC394014004150E800EE514FB
:10030A00B40209E50FC394014002150F20B005128B
:05031A00045D80F822E3
:0E072B007DFF7F04120709E4FD7F0502070928
:0E07390012072B1206E312025A12045D80F81A
:04064E00D2A07F05B2
:10065200000000000000000000000000000000AEEA
:06066200071FEE70EB2201
:0F071C00D2A112064EC2A17F05120652C2A02220
:0C075400C2A112064ED2A17F050206527F
:02059A00AD07AB
:10059C00E4FCC2A07F05120652ED30E704D2A18024
:1005AC0002C2A17F05120652D2A0ED25E0FD7F0507
:0905BC001206520CBC08DBC2A0BF
:0105C5002213
:10063100E4FC12064EED25E0FD30A103430501C2A5
:0C064100A07F051206520CBC08E8AF05B3
:01064D00228A
:0306CE0012059A78
:1006D10012064EA2A1E433FDC2A07F05120652AF5D
:0106E1000513
:0106E20022F5
:1006B600C2A0EF24FF92A17F0512065212064EC277
:0806C600A0D2A17F050206523B
:10066800AB0712071C7F901206CE7F411206CEAF51
:0A0678000312059A1206D10207547E
:040682007F057E0072
:10068600EF1FAA0670011E4A600BE4FDEDC3940C31
:0506960050EE0D80F79D
:01069B00223C
:02061300A90735
:10061500E4FBC294E9139294120682D294E9C313BF
:0C062500F90BBB08ED7F057E0002068685
:10069C00E4FBC294ECC313FCD29430940343048067
:0906AC001206820BBB08EBAF043F
:0106B5002222
:1005C600C200D2947F0C7E00120686C2947F507EB3
:1005D60000120686D2947F0A7E00120686A29492A4
:0605E60000120682A200D3
:0105EC0022EC
:1004E2001205C67FCC12061312045D7F4412061356
:1004F20012045D1205C67FCC12061312045D7FBE84
:1005020012061312045D12069CA90712069CEFFE46
:100512007C00E429FFEC3EFEAD07FCE4120192E40C
:10052200FBFA7980783D12000E8F198E188D178C88
:0C0532001612045DAF19AE18AD17AC1620
:01053E00229A
:0D074700C0F9A4B0999282F88090C68CFF92
:07000300AE071FEE70FA22A8
:100709008D80EFC43354E0FFE5A0541F4FF5A0538B
:03071900A01F22FC
:1005ED00AE05EF14FF7401A807088002C333D8FCD1
:1005FD00FD7F06120709EE90074793FD7F0712074F
:06060D00097FB0020003AA
:10000E00EC4D6011E8497017ED33EC3304600DE4EC
:10001E00FCFFFEFD22E933E8330470F802023712CA
:10002E00020258046009E4CC2481500628500902CB
:10003E00024128400302023EC0E0EB4A7044B98000
:10004E0006D0E0FB02022DEF4E701CBD8008EBFFC8
:10005E00EAFEE9FD80EBE98DF0A4FEE5F00200F783
:10006E00E9CDF9EAFEEBFFEF89F0A4FCE5F0CE89CD
:10007E00F0A42EFFE435F0CD89F0A42DFEE435F08A
:10008E008067EF4E7005BD80D780C3EF8BF0A4ACB8
:10009E00F0EE8BF0A42CFCE435F0F8EF8AF0A42CF3
:1000AE00E5F038FCE433CB8DF0A42CFCE5F03BF806
:1000BE00EE8AF0A42CFCE5F038F8E433CF89F0A4F6
:1000CE002CFCE5F038CF3400CE89F0A42FFFE5F0FC
:1000DE003EFEE433C98DF0A42EFEE5F039CD8AF054
:1000EE00A42FFFE5F03EFEE43DFD33D0E0FB5007CC
:1000FE000BBB000F020241EC2CFCEF33FFEE33FE84
:06010E00ED33FD020219B1
:1001140074F8CC6480CCC86480C8F58204604FC392
:10012400EB9FF5F0EA9E42F0E99D42F0E89C45F031
:10013400603C501DE5825FFFE582D313CB5BCBF4BB
:100144002B5582FB50280ABA002409B900200880E4
:100154001DE5825BFBE582D313CF5FCFF4C3132F7E
:100164005582FF50090EBE00050DBD00010CC3EB06
:100174009FF5F0EA9E42F0E99D42F0E89C45F0606C
:0901840007CC4820E701B3EC228E
:10018D0075F020800E75F010800575F0087D007EED
:10019D00007F003392D530D50312024CEC33401062
:1001AD00EF33FFEE33FEED33FDEC33FCD5F0ED22F6
:0E01BD00E5F0247EA2D513CC92E7CDCEFF2232
:1001CB00EDD2E7CD33EC3392D524814006E4FFFE2C
:1001DB00FDFC22FCE4CFCECDCC24E0501174FF808B
:1001EB00EDC3CC13CCCD13CDCE13CECF13CF047028
:0701FB00F030D5DE02024CDA
:10020200E9D2E7C933E833F892D5EDD2E7CD33EC42
:0702120033FC5002B2D522BB
:10021900EC30E7100FBF000C0EBE00080DBD000446
:100229000BEB6014A2D5EB13FCED92E7FD2274FFF2
:10023900FCFDFEFF22E480F8A2D574FF13FC7D804B
:03024900E480EF5F
:1003DD00020739E493A3F8E493A34003F68001F2F6
:1003ED0008DFF48029E493A3F85407240CC8C33321
:1003FD00C4540F4420C8834004F456800146F6DFF0
:10040D00E4800B01020408102040809006F6E47E83
:10041D00019360BCA3FF543F30E509541FFEE493E4
:10042D00A360010ECF54C025E060A840B8E493A3AB
:10043D00FAE493A3F8E493A3C8C582C8CAC583CAD6
:10044D00F0A3C8C582C8CAC583CADFE9DEE780BE8E
:0107080000F0
:0E024C00C3E49FFFE49EFEE49DFDE49CFC22C3
:00000001FF
