:0300000002032CCC
:0C032C00787FE4F6D8FD75811802037399
:1004C800060F0808080808080609000000000000D0
:0C04D8000115000117000108000116FFCB
:10058000E4F589538E3FD2AFD2A9758C3C758AAF02
:03059000D28C22E8
:10056B007DFF7F04120593E4FD7F051205937DFF4C
:05057B007F070205935B
:03000B000201E20D
:1001E200C0E0C0F0C083C082C0D075D000C000C0E3
:0D01F20001C002C003C004C005C006C00764
:1001FF00E51764016005E517B402020508E5176409
:10020F00017043E5156406703DE51630E0387F0157
:10021F0075180074092518F8E6FE740F2518F8E60E
:10022F006E60047F0080070518E518B406E5EF60DF
:10023F000F7D107F0512059375150075170280034A
:10024F005316FE750800E508B4641CE51620E00C93
:10025F0075150075170054FE4401F516E517B40225
:0F026F0006751700751500E508B4FF0375080044
:10027E00D007D006D005D004D003D002D001D000D4
:0B028E00D0D0D082D083D0F0D0E0327E
:10045400E517B401055316BF8008E51654BF4440A0
:10046400F516E517B4030553167F8008E516547F87
:0B0474004480F516AD167F04020593CE
:10029900120454E51714600F1460341460562403D3
:1002A900707A12056B80757D0A7F011204A4751896
:1002B90008C374089515FFE518D39F405FE5182515
:1002C900152400F8E6FDAF181204A4151880E2E41D
:1002D900FD7F011204A4E4FD7F051204A47D0C7FB7
:1002E900061204A47D0D7F071204A47D0E7F081257
:1002F90004A480287D0B7F011204A4751808C37417
:10030900089515FFE518D39F4012E5182515240017
:10031900F8E6FDAF181204A4151880E27DFF7F07E7
:0303290002059337
:1003F700E4F51874092518F8E6FF740F2518F8A610
:10040700070518E518B406EBE4F51874092518F87C
:10041700E6FDAF181205390518E518C3940640EB39
:0104270022B2
:0805E2007F757EB8DEFEDFFC30
:0105EA0022EE
:10000E00E51764016009E5176403600302015BE50F
:10001E0015C39406400302015BC2B0D2B4D2B5D26E
:10002E00C2D2C4D2B3D2B2D2B120C4171205E220CA
:10003E00C411051574082515F8E4F620C40512023E
:10004E009980F820C2171205E220C2110515740816
:10005E002515F8760120C20512029980F820B517F1
:10006E001205E220B511051574082515F876022043
:10007E00B50512029980F820B4171205E220B411CA
:10008E00051574082515F8760320B405120299801B
:10009E00F8C2B1D2B4D2B5D2C2D2C4D2B3D2B2D2D5
:1000AE00B020C4171205E220C411051574082515D9
:1000BE00F8760420C40512029980F820C2171205A2
:1000CE00E220C211051574082515F8760520C20523
:1000DE0012029980F820B5171205E220B511051508
:1000EE0074082515F8760620B50512029980F820B9
:1000FE00B4171205E220B411051574082515F8760B
:10010E000720B40512029980F8C2B2D2B4D2B5D289
:10011E00C2D2C4D2B3D2B1D2B020C4171205E220DB
:10012E00C411051574082515F8760820C4051202A9
:10013E009980F820C2171205E220C2110515740825
:10014E002515F8760920C20512029980F8C2B3D29D
:10015E00B4D2B5D2C2D2C4D2B2D2B1D2B020C221A0
:10016E00E51764016005E517B40316E51630E011D6
:10017E001205E220C20BE4F51520C2051202998089
:10018E00F820B537E51764026006E5176403702B97
:10019E001205E220B525E517B40203751703E51520
:1001AE00B40610E517B4030B1203F7E4F515751733
:1001BE0002F50820B50512029980F820B415E5174E
:1001CE0070111205E220B40B75170120B40512024E
:0401DE009980F822EA
:1003B8007F0812047FEF701EF518740F2518F8E6F1
:1003C800FDAF181205390518E518C3940640EB7DF2
:1003D800017F08020539E4F518AF1812047F740F7D
:0F03E8002518F8A6070518E518C3940640EB2260
:1005A60012056B1205801203B812000E1202998012
:0105B600F84C
:04051F00D2A07F05E2
:10052300000000000000000000000000000000AE1A
:06053300071FEE70EB2231
:0F05C700D2A112051FC2A17F05120523C2A022D7
:0C05D600C2A112051FD2A17F050205235F
:02042800AD071E
:10042A00E4FCC2A07F05120523ED30E704D2A180C7
:10043A0002C2A17F05120523D2A0ED25E0FD7F05AA
:09044A001205230CBC08DBC2A062
:010453002286
:1004E500E4FC12051FED25E0FD30A103430501C223
:0C04F500A07F051205230CBC08E8AF0531
:0105010022D7
:0B05020012042812050DAF031204289C
:10050D0012051FA2A1E433FDC2A07F05120523AF82
:01051D0005D8
:01051E0022BA
:10055300C2A0EF24FF92A17F0512052312051FC23B
:08056300A0D2A17F05020523CF
:0805EB007F3B7E5ADEFEDFFCBF
:0105F30022E5
:10053900AB05AA071205C77FA012042812050DAF43
:0A054900021205021205D60205EBAE
:02047F00AB07C9
:100481001205C77FA01205021205C77FA112042819
:1004910012050D1204E5AD077F011205531205D6B1
:0204A100AF05A5
:0104A3002236
:1005B700C0F9A4B0999282F88090F7C68C86C8FFDC
:0805F4007F067ED3DEFEDFFC72
:0105FC0022DC
:100593008D80EFC43354E0FFE5A0541F4FF5A05303
:0305A300A01F2274
:1004A400AE05EF14FF7401A807088002C333D8FC1B
:1004B400FD7F06120593EE9005B793FD7F071205A5
:0404C400930205F4A6
:100338000205A6E493A3F8E493A34003F68001F230
:1003480008DFF48029E493A3F85407240CC8C333C6
:10035800C4540F4420C8834004F456800146F6DF95
:10036800E4800B01020408102040809004C8E47E59
:10037800019360BCA3FF543F30E509541FFEE4938A
:10038800A360010ECF54C025E060A840B8E493A351
:10039800FAE493A3F8E493A3C8C582C8CAC583CA7C
:1003A800F0A3C8C582C8CAC583CADFE9DEE780BE34
:0104E4000017
:00000001FF
