:0300000002037682
:0C037600787FE4F6D8FD7581200203BDFD
:1005A900011000011100010800010D00010F0101F6
:0B05B9000CFF010AFF010B00010E0106
:10058C00758902538E3FD2AFD2A9D2AB758C9B75B5
:0D059C008A9B758D3C758BAFD28CD28E2260
:03000B00020548A3
:10054800C0E0C0D00510E510C3950B500AE508942B
:10055800004004D2B48002C2B4E510B40A03751096
:0605680000D0D0D0E0320B
:03001B00020402DA
:10040200C0E0C0F0C083C082C0D075D000C000C0C0
:1004120001C002C003C004C005C006C0070511E543
:1004220011B41409E508D3940040021508E51175CA
:10043200F00A84E5F0700AE50EB402051204B98FE1
:1004420009E511B41403751100D007D006D005D008
:1004520004D003D002D001D000D0D0D082D083D03B
:04046200F0D0E032C4
:10046600E508D394004038E50FB40105530CFE802F
:1004760008E50C54FE4401F50CE50FB40205530CD7
:10048600FD8008E50C54FD4402F50CE50FB40305A8
:10049600530CFB800DE50C54FB4404F50C800375EE
:1004A6000CFFE50C650A600AAD0C7F041205F985A0
:0304B6000C0A220B
:10024600120466E50E24FE60590460030202DD7D99
:100256000B7F011204F9AD0F7F021204F97D0B7FAB
:10026600031204F9AF087E007C037DE81201E3ADBA
:10027600077F051204F9E50875F0648475F00A84B1
:10028600ADF07F061204F9E50875F00A8475F00AE8
:1002960084ADF07F071204F9E50875F00A84ADF025
:1002A60080307D0B7F011204F97D047F021204F970
:1002B6007D0B7F031204F9E50975F00A84FD7F06BC
:1002C6001204F9E50975F00A84ADF07F071204F906
:0E02D6007D0A7F081204F97DFF7F070205F9FB
:080632007F757EB8DEFEDFFCDF
:01063A00229D
:1002E40020B33612063220B330E50FC39403500412
:1002F400050F8003750F01E50F24FE600C14600EDA
:100304002402700D750B028008750B038003750BB6
:100314000720B30512024680F820B22312063220C9
:10032400B21DE50DC394785008743C250DF50D807D
:1003340003E4F50D850D0820B20512024680F8206D
:10034400B11112063220B10BE4F50820B1051202F6
:100354004680F820B01B12063220B015E50EB40119
:1003640005750E028003750E0120B0051202468049
:02037400F8226D
:0E060C007DFF7F041205F9E4FD7F050205F96C
:0E061A0012060C12058C1202E412024680F841
:0405C5007F057E0030
:1005C900EF1FAA0670011E4A600BE4FDEDC3940CEF
:0505D90050EE0D80F75B
:0105DE0022FA
:02056E00A907DB
:10057000E4FBC294E91392941205C5D294E9C31323
:0C058000F90BBB08ED7F057E000205C9E9
:1005DF00E4FBC294ECC313FCD29430940343048025
:0905EF001205C50BBB08EBAF04BB
:0105F80022E0
:10052100C200D2947F0C7E001205C9C2947F507E16
:10053100001205C9D2947F0A7E001205C9A29492C5
:06054100001205C5A20036
:010547002291
:1004B9001205217FCC12056E7F4412056E120521AB
:1004C9007FCC12056E7FBE12056E1205DFA90712D9
:1004D90005DFEFFE7C00E429FFEC3EFEAD07FCE4FE
:1004E900120129E4FBFA7980783D12001E020162AB
:0C000E00C0F9A4B0999282F88090C6BF9F
:0A062800EF1F70011E144E70F72240
:1005F900EFC43354E0FFE5A0541F4FF5A08D80539D
:03060900A01F220D
:1004F900AE05EF14FF7401A807088002C333D8FCC6
:10050900FD7F061205F9EE90000E93FD7F07120597
:08051900F97FB07E0402062800
:10001E00EC4D6011E8497017ED33EC3304600DE4DC
:10002E00FCFFFEFD22E933E8330470F80201CE1224
:10003E00019958046009E4CC248150062850090225
:10004E0001D82840030201D5C0E0EB4A7044B980C4
:10005E0006D0E0FB0201C4EF4E701CBD8008EBFF22
:10006E00EAFEE9FD80EBE98DF0A4FEE5F002010762
:10007E00E9CDF9EAFEEBFFEF89F0A4FCE5F0CE89BD
:10008E00F0A42EFFE435F0CD89F0A42DFEE435F07A
:10009E008067EF4E7005BD80D780C3EF8BF0A4ACA8
:1000AE00F0EE8BF0A42CFCE435F0F8EF8AF0A42CE3
:1000BE00E5F038FCE433CB8DF0A42CFCE5F03BF8F6
:1000CE00EE8AF0A42CFCE5F038F8E433CF89F0A4E6
:1000DE002CFCE5F038CF3400CE89F0A42FFFE5F0EC
:1000EE003EFEE433C98DF0A42EFEE5F039CD8AF044
:1000FE00A42FFFE5F03EFEE43DFD33D0E0FB5007BC
:10010E000BBB000F0201D8EC2CFCEF33FFEE33FEDD
:06011E00ED33FD0201B00B
:1001240075F020800E75F010800575F0087D007E56
:10013400007F003392D530D503120238EC334010DF
:10014400EF33FFEE33FEED33FDEC33FCD5F0ED225F
:0E015400E5F0247EA2D513CC92E7CDCEFF229B
:10016200EDD2E7CD33EC3392D524814006E4FFFE95
:10017200FDFC22FCE4CFCECDCC24E0501174FF80F4
:10018200EDC3CC13CCCD13CDCE13CECF13CF047091
:07019200F030D5DE02023857
:10019900E9D2E7C933E833F892D5EDD2E7CD33ECAC
:0701A90033FC5002B2D52225
:1001B000EC30E7100FBF000C0EBE00080DBD0004B0
:1001C0000BEB6014A2D5EB13FCED92E7FD2274FF5C
:1001D000FCFDFEFF22E480F8A2D574FF13FC7D80B5
:0301E000E480EFC9
:1003820002061AE493A3F8E493A34003F68001F271
:1003920008DFF48029E493A3F85407240CC8C3337C
:1003A200C4540F4420C8834004F456800146F6DF4B
:1003B200E4800B01020408102040809005A9E47E2D
:1003C200019360BCA3FF543F30E509541FFEE49340
:1003D200A360010ECF54C025E060A840B8E493A307
:1003E200FAE493A3F8E493A3C8C582C8CAC583CA32
:1003F200F0A3C8C582C8CAC583CADFE9DEE780BEEA
:0105C4000036
:1001E300BC000BBE0029EF8DF084FFADF022E4CC00
:1001F300F875F008EF2FFFEE33FEEC33FCEE9DECC9
:10020300984005FCEE9DFE0FD5F0E9E4CEFD22ED0E
:10021300F8F5F0EE8420D21CFEADF075F008EF2F58
:10022300FFED33FD4007985006D5F0F222C398FD49
:050233000FD5F0EA22E6
:0E023800C3E49FFFE49EFEE49DFDE49CFC22D7
:00000001FF
