:030000000203C335
:0C03C300787FE4F6D8FD75812002040A62
:1004D500010D00011000010F01010B17010C3B017B
:1004E5000A00011200011400011100011300011599
:0404F50000010EFFF5
:10054C00E4F589538E3FD2AFD2A9758C3C758AAF36
:03055C00D28C221C
:03000B000202D31B
:1002D300C0E0C0F0C083C082C0D075D000C000C0F1
:1002E30001C002C003C004C005C006C007050D0558
:1002F30010E5105403704EE512B50B13E514B50C5D
:100303000EE511B50A09E5157005751501F510E53A
:1003130015B4011AE510C394645013E50EF444FEBA
:10032300FFE50E44015FF50EFD7F0412055FE51541
:10033300B40112E510B4640D751500750EFFAD0E12
:100343007F0412055FE50FB4030FE50D75F0058417
:10035300E5F0700512044F8F09E50D75F01484AFB5
:10036300F0EF701E050AE50AB43C17750A00050C88
:10037300E50CB43C0D750C00050BE50BB4180375C7
:100383000B00E513600FEF700CE50860047F00803D
:10039300027F018F08E50DB4F003750D00E510B47D
:1003A3006403751000D007D006D005D004D003D065
:1003B30002D001D000D0D0D082D083D0F0D0E032B0
:10018500E50F24FE70030202201470030202B2245C
:100195000260030202D2E513B4010FE508700B7D7E
:1001A5000C7F011204867D0C8014E50B75F00A8422
:1001B500FD7F01120486E50B75F00A84ADF07F0220
:1001C5001204867D0B7F03120486E513B4020FE546
:1001D50008700B7D0C7F041204867D0C8014E50CE1
:1001E50075F00A84FD7F04120486E50C75F00A8417
:1001F500ADF07F051204867D0B7F06120486E5139C
:10020500B40307E5087003020291E50A75F00A8454
:10021500FD7F07120486E50A0202AAE513B4010F61
:10022500E508700B7D0C7F011204867D0C8014E5BA
:100235001275F00A84FD7F01120486E51275F00A35
:1002450084ADF07F021204867D0B7F03120486E5E0
:1002550013B4020FE508700B7D0C7F041204867D34
:100265000C8014E51475F00A84FD7F04120486E5FC
:100275001475F00A84ADF07F051204867D0B7F06A8
:10028500120486E513B4030FE508700B7D0C7F0798
:100295001204867D0C8031E51175F00A84FD7F0717
:1002A500120486E51175F00A84ADF0801BE5097529
:1002B500F00A84FD7F06120486E50975F00A84AD0F
:0E02C500F07F071204867D0A7F08120486224D
:0805A5007F757EB8DEFEDFFC6D
:0105AD00222B
:10000E0020B021E50FB4011C1205A520B016E51392
:10001E00C39403500405138003E4F51320B00512B6
:10002E00018580F820B136E50F640360301205A516
:10003E0020B12AE50FB4010CE5137008750F027597
:10004E0013018011E513C394035004051380067544
:10005E000F01E4F51320B10512018580F820B27866
:10006E00E50F64036072E513606E1205A520B26899
:10007E00E50F6401702EE51324FE601214601A243D
:10008E0002704DE50BD394165046050B8042E50CDD
:10009E00D3943A503B050C8037E50AD3943A50304E
:1000AE00050A802CE51324FE601214601A240270D7
:1000BE001FE512D39416501805128014E514D3942C
:1000CE003A500D05148009E511D3943A50020511EA
:1000DE0020B20512018580F830B303020184E50FCA
:1000EE00640370030201841205A530B30302018478
:1000FE00E513700AE50FB40105750F03806DE51366
:10010E006034E50F6401702EE51324FE6012146056
:10011E001A24027056E50BC39401404F150B804B09
:10012E00E50CC394014044150C8040E50AC39401CC
:10013E004039150A8035E5136031E50FB4022CE520
:10014E001324FE601214601A2402701FE512C39469
:10015E0001401815128014E514C39401400D1514B6
:10016E008009E511C394014002151120B305120157
:07017E008580F8750F0122D6
:0E0572007DFF7F0412055FE4FD7F0502055F3B
:0E05800012057212054C12000E12018580F851
:040518007F057E00DD
:10051C00EF1FAA0670011E4A600BE4FDEDC3940C9C
:05052C0050EE0D80F708
:0105310022A7
:0204FA00A90750
:1004FC00E4FBC294E9139294120518D294E9C31345
:0C050C00F90BBB08ED7F057E0002051C0A
:10053200E4FBC294ECC313FCD294309403430480D2
:090542001205180BBB08EBAF0415
:01054B00228D
:1004AE00C200D2947F0C7E0012051CC2947F507E37
:1004BE000012051CD2947F0A7E0012051CA2949293
:0604CE0000120518A20057
:0104D4002205
:10044F001204AE7FCC1204FA7F441204FA1204AEE7
:10045F007FCC1204FA7FBE1204FA120532A90712DA
:10046F000532EFFE7C00E429FFEC3EC4F854F0C8DF
:06047F00EFC4540F48FF1A
:010485002254
:0D058E00C0F9A4B0999282F88090C6BFFF1A
:0A059B00EF1F70011E144E70F722CE
:10055F008D80EFC43354E0FFE5A0541F4FF5A05337
:03056F00A01F22A8
:10048600AE05EF14FF7401A807088002C333D8FC39
:10049600FD7F0612055FEE90058E93FD7F07120520
:0804A6005F7FE87E0302059B65
:1003CF00020580E493A3F8E493A34003F68001F2BF
:1003DF0008DFF48029E493A3F85407240CC8C3332F
:1003EF00C4540F4420C8834004F456800146F6DFFE
:1003FF00E4800B01020408102040809004D5E47EB5
:10040F00019360BCA3FF543F30E509541FFEE493F2
:10041F00A360010ECF54C025E060A840B8E493A3B9
:10042F00FAE493A3F8E493A3C8C582C8CAC583CAE4
:10043F00F0A3C8C582C8CAC583CADFE9DEE780BE9C
:0104F9000002
:00000001FF
