:03000000020C36B9
:0C0C3600787FE4F6D8FD758121020C7D6A
:100DC70002102328010828010F3C011700011DFF0D
:0C0DD700011900011F01011E00010C01A8
:100DA600758906758CFF758AFF75D6FF75D737D29C
:100DB600AFD2A975AF04E58E54234410F58ED28CBC
:010DC600220A
:03000B00020ED111
:0D0ED100C0E0050EE50E7002050DD0E03208
:100B5E00D3E5159511E51495104005531DF7800842
:100B6E00E51D54F74408F51DE50BD39508400553D4
:100B7E001DEF8008E51D54EF4410F51DD3E51395C8
:100B8E000FE51294004005531DDF8008E51D54DF6C
:100B9E004420F51DE51F24FE600F14601914602318
:100BAE0024037073531DFE8066531DFDE51D54FE18
:100BBE004401F51D8061531DFBE51D54FD4402F5F6
:100BCE001D8054E50CB4010FE51DF444FEFFE51D38
:100BDE0044015FF51D8008E51D54FE4401F51DE539
:100BEE000CB4020FE51DF444FDFFE51D44025FF554
:100BFE001D8008E51D54FD4402F51DE50CB4030FE0
:100C0E00E51DF444FBFFE51D44045FF51D8008E57A
:100C1E001D54FB4404F51DE51D6520600AAD1D7FC6
:080C2E0004120E75851D202241
:030063000207CCC5
:1007CC00C0E0C0F0C083C082C0D075D000C000C0F3
:0D07DC0001C002C003C004C005C006C00774
:1007E900AE1AAF1BE4FCFD74FFFBFAF9F8D312044F
:1007F9004E400A051BE51B700A051A8006751A008A
:10080900751B00C3E50A9470E5099417500A050A97
:10081900E50A700A05098006750900750A00D3E51D
:10082900159511E51495104016AE0DAF0E7C007D9F
:10083900051203D5D3ED9403EC940050168019AE3C
:100849000DAF0E7C007D051203D5D3ED9403EC9416
:100859000050055317DF8008E51754DF4420F517CA
:10086900AE1AAF1B7C017DF41203D5ED4C70031257
:100879000B5EAE1AAF1B7C037DE81203D5ED4C600D
:10088900030209B6D3E513950FE51294004018E564
:100899001970070516AF16120E62751901E517547E
:1008A900EF4410F51780067519005317EF120EB5AE
:1008B900AC07E412030EE4FBFA794C7842120267A2
:1008C900E4FBFA79A0784112015E1203428F0BE52D
:1008D9000BD395085003752133E50BD395085003C5
:1008E90002099EE50B9450400302099EAF087E0061
:1008F9007C007D051203C3AC06AD07E4120309A809
:1009090004A905AA06AB07E4FFFE7DA07C421200FC
:1009190069C004C005C006C007C374509508FDE44A
:100929009400FCE4120309A804A905AA06AB07D0A0
:1009390007D006D005D004120267C004C005C0065E
:10094900C007AC0BE412030EE4FBFA79807840127D
:10095900015EC004C005C006C007C374509508FDF8
:10096900E49400FCE4120309A804A905AA06AB074C
:10097900D007D006D005D004120267D003D002D028
:1009890001D00012006DE4FBFA794C784212015E45
:100999001203428F21E50BC3945040037521FFE5F3
:1009A9002165186008AF21120E88852118E51765A1
:1009B9001C600AAD177F05120E7585171CAE1AAF9C
:1009C9001B7C097DC41203D5ED4C7018E50E25E09A
:1009D900F515E50D33F514750D00750E00120CFBB8
:0409E9008E128F13C8
:1009ED00D007D006D005D004D003D002D001D0005E
:0B09FD00D0D0D082D083D0F0D0E03208
:10052D00E51F24FE7003020678147003020697146B
:10053D00700302071E240360030207CB7D0B7F01AE
:10054D00120D5CE51E600302060BAE14AF15FCFD2B
:10055D007BA07A867901F8D31204385012AE14AF0D
:10056D0015E4FCFDF812000EAD077F03120D5CC300
:10057D00E5159410E51494274017AE14AF157C279C
:10058D007D101203D57C007D0A1203D57F04120D58
:10059D005CC3E51594E8E51494034017AE14AF154C
:1005AD007C037DE81203D57C007D0A1203D57F05FF
:1005BD00120D5CC3E5159464E51494004017AE1458
:1005CD00AF157C007D641203D57C007D0A1203D526
:1005DD007F06120D5CC3E515940AE51494004017CF
:1005ED00AE14AF157C007D0A1203D57C007D0A1276
:1005FD0003D57F07120D5CAE14AF15020714AE14B0
:10060D00AF15E4FCFD7BA07A867901F8D31204388E
:10061D005012AE14AF15E4FCFDF812000EAD077FBD
:10062D0005120D5CC3E5159410E51494274017AE23
:10063D0014AF157C277D101203D57C007D0A1203A3
:10064D00D57F06120D5CAE14AF157C037DE8120349
:10065D00D57C007D0A1203D57F07120D32AE14AF83
:10066D00157C007D641203D50207147D0C7F0112E9
:10067D000D5CE50BC3940A400CE50B75F00A84FD87
:10068D007F07120D5CE50B0207C07D0A7F01120D7D
:10069D005CE51E7045C3E5139464E51294004012A9
:1006AD00AE12AF137C007D641203D5AD077F061229
:1006BD000D5CC3E513940AE51294004017AE12AF1A
:1006CD00137C007D0A1203D57C007D0A1203D57FB1
:1006DD0007120D5CAE12AF13802DAE12AF137C005E
:1006ED007D641203D5AD077F06120D32AE12AF1326
:1006FD007C007D0A1203D57C007D0A1203D57F078D
:10070D00120D5CAE12AF137C007D0A1203D50207E9
:10071D00C67D0D7F01120D5CE50C640170527D01EB
:10072D007F02120D5CC3E5119410E5109427401261
:10073D00AE10AF117C277D101203D5AD077F0612C9
:10074D000D5CAE10AF117C037DE81203D57C007DEE
:10075D000A1203D57F07120D32AE10AF117C007D4A
:10076D00641203D57C007D0A1203D57F08120D5C3F
:10077D00E50CB402207D027F02120D5CE50875F0D8
:10078D000A84FD7F07120D5CE50875F00A84ADF053
:10079D007F08120D5CE50CB403247D037F02120D5E
:1007AD005CE50F75F06484FD7F07120D32E50F7562
:0F07BD00F00A8475F00A84ADF07F08120D5C22FB
:100A080020B31CE51FC394045004051F8003751F01
:100A180001750C01E4F51E20B30512052D80F820A0
:100A2800B21BE51FB40416E50CC394035004050C6F
:100A38008003750C0120B20512052D80F820B17BCA
:100A4800E51F64046006E51F6403706FE51F640416
:100A58007055E50CB4011FC3E51194E0E510942E20
:100A6800500E74F42511F51174013510F510800637
:100A78007510037511E8E50CB40212E508C3943C3F
:100A88005008740A2508F508800375080AE50C64FF
:100A9800037020E50FC394785008740A250FF50FEA
:100AA8008011750F0A800CE51E60047F0080027FAC
:100AB800018F1E20B10512052D80F830B003020BFE
:100AC8005DE51F64037003020B5DE51F6404705548
:100AD800E50CB4011FD3E51194E8E5109403400E2A
:100AE800740C2511F51174FE3510F510800675107B
:100AF8002E7511E0E50CB40212E508D3940A4008FB
:100B080074F62508F508800375083CE50C64037045
:100B180020E50FD3940A400874F6250FF50F8011CD
:100B2800750F78800CE51E60047F0080027F018FBE
:100B38001EE4F509F50A20B00512052D80F8C3E575
:100B48000A9488E5099413400CE51FB40207E4F5FC
:060B580016FF120E6222DE
:100E4F001200528F167DFF7F04120E75E4FD7F0591
:030E5F00020E750B
:0E0EA700120E4F120DA612052D120A0880F829
:040E1D00D2A07F05DB
:100E2100000000000000000000000000000000AE13
:060E3100071FEE70EB222A
:0F0E9800D2A1120E1DC2A17F05120E21C2A022EF
:100E0100120CCF120D94120DE4AD077F01120E37B3
:0C0E1100C2A1120E1DD2A17F05020E210D
:0D0CC200120E987FA0120CCF120D94E4FFCB
:020CCF00AD076F
:100CD100E4FCC2A07F05120E21ED30E704D2A18011
:100CE10002C2A17F05120E21D2A0ED25E0FD7F05F4
:090CF100120E210CBC08DBC2A0AC
:010CFA0022D7
:100DE400E4FC120E1DED25E0FD30A103430501C214
:0C0DF400A07F05120E210CBC08E8AF0522
:010E000022CF
:100D8400120E987F90120CCF120D947F43120CCF49
:100D9400120E1DA2A1E433FDC2A07F05120E21AFE5
:010DA4000549
:010DA500222B
:100E3700C2A0EF24FF92A17F05120E21120E1DC240
:080E4700A0D2A17F05020E21DB
:100E8800AB07120D84AF03120CCF120D94020E1192
:0D0EB500120D84120E987F91120E01AF05F0
:010EC200220D
:100E6200AB07120CC2120D94AF03120CCF120D94E9
:030E7200020E115C
:10005200120CC2120D94120E987FA1120E01AF055E
:01006200227B
:0E0EC300C0F9A4B0999282F88090888E898C34
:0A0EDE00EF1F70011E144E70F72282
:100E7500EFC43354E0FFE5A0541F4FF5A08D805318
:030E8500A01F2289
:100D5C00AE05EF14FF7401A807088002C333D8FC5A
:100D6C00FD7F06120E75EE900EC393FD7F07120EDB
:080D7C00757FE87E03020EDE24
:100D3200AE05EF14FF7401A807088002C333D8FC84
:100D4200FD7F06120E75EE900EC3932480FD7F0781
:0A0D5200120E757FE87E03020EDE2C
:060EE80000007F21DFFE87
:010EEE0022E1
:08000300D290120EE8C2902217
:100CFB00E4F58DF58B120003D28E309103308FFA11
:100D0B00C28E208F1CAF8DEFFEAD8BEDFFAC06E4DA
:100D1B001203097B967A43798B783C12015E0203AE
:060D2B0042C28FE4FEFF4E
:010D3100229F
:100066000203AEE86480F8E933E83360110460F017
:10007600ED33EC337009E8FCE9FDEAFEEBFF220400
:1000860060DED3EB9FEA9EE99DE8C2E78CF0C2F7FB
:1000960095F0400CE8CCF8E9CDF9EACEFAEBCFFBC7
:1000A60012037985D0F05804700320D5B3E80470A4
:1000B600075002B2D50203B892D5EC0460F7E4CC3F
:1000C600C0E0C398F8603B94186008400DD0E0FB90
:1000D600020390E4FBFAC9FC8028E830E406E4C990
:1000E600FBE4CAFCE830E305E4C9CACBFCE85407E4
:1000F6006010F8C3E913F9EA13FAEB13FBEC13FCEF
:10010600D8F130F52FC3E49CFCEF9BFFEE9AFEED91
:1001160099FDD0E0FBEF4E4D4C701222DB0302033B
:10012600B5EC2CFCEF33FFEE33FEED33FDED30E79F
:10013600EB020390EF2BFFEE3AFEED39FDD0E0FB2C
:1001460050130BBB00030203B8ED13FDEE13FEEFD5
:0801560013FFEC13FC020390FF
:10015E00EC4D6011E8497017ED33EC3304600DE49B
:10016E00FCFFFEFD22E933E8330470F80203AE1201
:10017E00037958046009E4CC248150062850090202
:10018E0003B82840030203B5C0E0EB4A7044B980BF
:10019E0006D0E0FB0203A4EF4E701CBD8008EBFFFF
:1001AE00EAFEE9FD80EBE98DF0A4FEE5F0020247E0
:1001BE00E9CDF9EAFEEBFFEF89F0A4FCE5F0CE897C
:1001CE00F0A42EFFE435F0CD89F0A42DFEE435F039
:1001DE008067EF4E7005BD80D780C3EF8BF0A4AC67
:1001EE00F0EE8BF0A42CFCE435F0F8EF8AF0A42CA2
:1001FE00E5F038FCE433CB8DF0A42CFCE5F03BF8B5
:10020E00EE8AF0A42CFCE5F038F8E433CF89F0A4A4
:10021E002CFCE5F038CF3400CE89F0A42FFFE5F0AA
:10022E003EFEE433C98DF0A42EFEE5F039CD8AF002
:10023E00A42FFFE5F03EFEE43DFD33D0E0FB50077A
:10024E000BBB000F0203B8EC2CFCEF33FFEE33FEBA
:06025E00ED33FD020390E8
:100264000203B8EC5D046005E8590470030203AEB0
:10027400120379580460F6EC4860F2EC7004FDFE59
:10028400FF22C860DB2481C85009C398600250066D
:100294000203B59850CAF582E9294B4A7005AB822E
:1002A4000203A475F0007C1A7880C3EF9BEE9AEDEC
:1002B40099400DC3EF9BFFEE9AFEED99FDE842F0E5
:1002C400DC23ACF0D0E0FFD0E0FED0E0FDAB822038
:1002D400E7101BEB60BAEC2CFCEF33FFEE33FEEDC2
:1002E40033FD020390E803F830E705C0F075F00031
:1002F400EF2FFFEE33FEED33FD40B830E7C280AAA6
:1003040075F020800E75F010800575F0087D007E74
:10031400007F003392D530D50312042AEC33401009
:10032400EF33FFEE33FEED33FDEC33FCD5F0ED227D
:0E033400E5F0247EA2D513CC92E7CDCEFF22B9
:10034200EDD2E7CD33EC3392D524814006E4FFFEB3
:10035200FDFC22FCE4CFCECDCC24E0501174FF8012
:10036200EDC3CC13CCCD13CDCE13CECF13CF0470AF
:07037200F030D5DE02042A81
:10037900E9D2E7C933E833F892D5EDD2E7CD33ECCA
:0703890033FC5002B2D52243
:10039000EC30E7100FBF000C0EBE00080DBD0004CE
:1003A0000BEB6014A2D5EB13FCED92E7FD2274FF7A
:1003B000FCFDFEFF22E480F8A2D574FF13FC7D80D3
:0303C000E480EFE7
:100C4200020EA7E493A3F8E493A34003F68001F213
:100C520008DFF48029E493A3F85407240CC8C333B3
:100C6200C4540F4420C8834004F456800146F6DF82
:100C7200E4800B0102040810204080900DC7E47E3E
:100C8200019360BCA3FF543F30E509541FFEE49377
:100C9200A360010ECF54C025E060A840B8E493A33E
:100CA200FAE493A3F8E493A3C8C582C8CAC583CA69
:100CB200F0A3C8C582C8CAC583CADFE9DEE780BE21
:010DE300000F
:1003C300EF8DF0A4A8F0CF8CF0A428CE8DF0A42E4E
:0203D300FE2208
:1003D500BC000BBE0029EF8DF084FFADF022E4CC0C
:1003E500F875F008EF2FFFEE33FEEC33FCEE9DECD5
:1003F500984005FCEE9DFE0FD5F0E9E4CEFD22ED1B
:10040500F8F5F0EE8420D21CFEADF075F008EF2F64
:10041500FFED33FD4007985006D5F0F222C398FD55
:050425000FD5F0EA22F2
:10000E00C2D5E830E70FB2D5E4C39BFBE49AFAE41D
:10001E0099F9E498F8EC30E717B2D51200441204BF
:10002E009BE4C39BFBE49AFAE499F9E498F8800305
:10003E0012049B30D50DE4C39FFFE49EFEE49DFDAC
:04004E00E49CFC2210
:0E042A00C3E49FFFE49EFEE49DFDE49CFC22E3
:10043800EB9FF5F0EA9E42F0E99D42F0EC6480C83B
:0604480064809845F022DB
:10044E00EB9FF5F0EA9E42F0E99D42F0E89C45F004
:01045E00227B
:10045F0075F008758200EF2FFFEE33FECD33CDCC54
:10046F0033CCC58233C5829BED9AEC99E5829840D7
:10047F000CF582EE9BFEED9AFDEC99FC0FD5F0D6B4
:10048F00E4CEFBE4CDFAE4CCF9A88222B800C1B9DE
:10049F000059BA002DEC8BF084CFCECDFCE5F0CB1C
:1004AF00F97818EF2FFFEE33FEED33FDEC33FCEB55
:1004BF0033FB10D703994004EB99FB0FD8E5E4F910
:1004CF00FA227818EF2FFFEE33FEED33FDEC33FCFD
:1004DF00C933C910D7059BE99A4007EC9BFCE99AF1
:1004EF00F90FD8E0E4C9FAE4CCFB2275F010EF2F36
:1004FF00FFEE33FEED33FDCC33CCC833C810D70736
:10050F009BEC9AE899400AED9BFDEC9AFCE899F870
:0E051F000FD5F0DAE4CDFBE4CCFAE4C8F92203
:00000001FF
