:0300000002091DD5
:0C091D00787FE4F6D8FD75813C02096487
:0F0C7F00012AFF012D0101240101250001331E6F
:100B1C00758906538E3FD2AFD2A9D2AB758CFF75B7
:0D0B2C008AFF758D3C758BAFC28CD28E2276
:100C6F00120BFC8F28120C108F29120C248F2722A5
:03000B0002000EE2
:0D000E00C0E00537E53770020536D0E0325E
:03001B000205E8F3
:1005E800C0E0C0F0C083C082C0D075D000C000C0D9
:1005F80001C002C003C004C005C006C0070521E54C
:100608002175F00A84E5F07008E52DB40103120C99
:100618006FE52175F00584E5F0702DE52D64046023
:1006280027120A46EFC39414501E7536007537001A
:10063800D28C7521001209A9852D34752D04120B51
:10064800FC8F2B120C108F2CE52164146003020719
:1006580077E52D64046003020777C28C8535231281
:1006680009A91202FA8F35E535D3952E4003853551
:100678002EAC25E41202C6AB32AA31A930A82F123B
:100688000116C004C005C006C007AC35E41202C696
:10069800D003D002D001D000120025C004C005C08C
:1006A80006C007E5252401FDE433FCE41202C1A8D5
:1006B80004A905AA06AB07D007D006D005D00412B6
:1006C800021F8F328E318D308C2FC3E53794C8E5E9
:1006D800369400400BD3E53794D0E53694074006AE
:1006E800752200020777852226AC36AD37E4120260
:1006F800C17B587A397934783D1201167B9A7A99F8
:100708007999783F1200251202FA8F22E522D395B3
:10071800384003852238AC25E41202C6AB3CAA3B1C
:10072800A93AA839120116C004C005C006C007AC12
:1007380022E41202C6D003D002D001D00012002554
:10074800C004C005C006C007E5252401FDE433FC4C
:10075800E41202C1A804A905AA06AB07D007D0066F
:10076800D005D00412021F8F3C8E3B8D3A8C39E5A0
:1007780021B43C0AE52DB40405052585342DE52171
:10078800B4FF03752100D007D006D005D004D003EC
:10079800D002D001D000D0D0D082D083D0F0D0E029
:0107A800321E
:10088A00E52DB40105532AFE8008E52A54FE4401E9
:10089A00F52AE52DB40205532AFD8008E52A54FD00
:1008AA004402F52AE52DB40405532AFB8008E52AFB
:1008BA0054FB4404F52AE535D395334014E5212049
:1008CA00E017E52AF444F7FFE52A44085FF52A8091
:1008DA0008E52A54F74408F52AE522B40105532A03
:1008EA00EF8008E52A54EF4410F52AE525C394025F
:1008FA004012E5239535500CE526C3952250055341
:10090A002ADF8008E52A54DF4420F52AAD2A7F042D
:03091A00020C4B81
:1003DE0012088AE52D24FE6064147003020575145C
:1003EE007003020592240360030205E1E52875F00F
:1003FE000A84FD7F01120ABBE52875F00A84ADF070
:10040E007F02120ABB7D107F03120ABBE52975F02D
:10041E000A84FD7F04120ABBE52975F00A84ADF04B
:10042E007F05120ABB7D107F06120ABBE52775F009
:10043E000A84FD7F07120ABBE52702056DE52464D9
:10044E000170377D0B7F01120ABBE5257003020593
:10045E00E1E4FFFE7D207C41AB32AA31A930A82F0A
:10046E001201161202FA8E088F09E52E75F00A8413
:10047E00FD7F03120ABBE52E803EE5246402600375
:10048E0002050F7D0F7F01120ABBE52570030205E1
:10049E00E1E4FFFE7D207C41AB3CAA3BA93AA839A2
:1004AE001201161202FA8E088F09E53875F00A84C9
:1004BE00FD7F03120ABBE53875F00A84ADF07F04A8
:1004CE00120ABB7D107F05120ABBAE08AF097C0075
:1004DE007D6412037BAD077F06120ABBAE08AF091F
:1004EE007C007D0A12037B7C007D0A12037B7F0752
:1004FE00120A95AE08AF097C007D0A12037B020535
:10050E00DCE524640360030205E17D0D7F01120A20
:10051E00BBE52575F00A84FD7F02120ABBE5257541
:10052E00F00A84ADF07F03120ABBE52570030205C5
:10053E00E1E52B75F00A84FD7F04120ABBE52B75ED
:10054E00F00A84ADF07F05120ABB7D107F06120AF9
:10055E00BBE52C75F00A84FD7F07120ABBE52C75EE
:10056E00F00A84ADF080677D0E7F01120ABBE53381
:10057E0075F00A84FD7F07120ABBE53375F00A8415
:10058E00ADF0804A7D0C7F01120ABBE53575F00A8D
:10059E0084FD7F04120ABBE53575F00A84ADF07F49
:1005AE0005120ABB7D107F06120ABBE522700B7D79
:1005BE000A7F07120ABB7D0A8014E52275F00A84B1
:1005CE00FD7F07120ABBE52275F00A84ADF07F08A5
:0A05DE00120ABB7DFF7F07020C4BE1
:080CB8007F757EB8DEFEDFFC53
:010CC0002211
:1007A900C2B3D2C2D2C4D2B220C424120CB820C45B
:1007B9001EE52DC394035004052D8003752D01E515
:1007C9002DB4020375240120C4051203DE80F8C28A
:1007D900B2D2C2D2C4D2B320C421E52DB4021C12B4
:1007E9000CB820C416E524C39403500405248003DF
:1007F90075240120C4051203DE80F8C2B3D2C2D227
:10080900C4D2B220C215E52DB40310120CB820C20F
:100819000A053320C2051203DE80F8C2B2D2C2D261
:10082900C4D2B320C215E52DB40310120CB820C2EE
:100839000A153320C2051203DE80F820C242E52DD5
:100849006402703CE52464037036120CB820C2308F
:10085900F52120C22B1203DEE521D3942840F3E4CD
:10086900F53CF53BF53AF539F532F531F530F52F2B
:10087900F525F538F52EF526F523F522F53580D23F
:01088900224C
:0E0C9E007DFF7F04120C4BE4FD7F05020C4B22
:100BBC00120C9E120ADF120B1CE52D64046003124A
:070BCC0007A91203DE80F20D
:040B5600D2A07F05A5
:100B5A00000000000000000000000000000000AEDD
:060B6A00071FEE70EB22F4
:0F0C8F00D2A1120B56C2A17F05120B5AC2A0228E
:0C0CAC00C2A1120B56D2A17F05020B5A08
:020A1A00AD0726
:100A1C00E4FCC2A07F05120B5AED30E704D2A18092
:100A2C0002C2A17F05120B5AD2A0ED25E0FD7F0575
:090A3C00120B5A0CBC08DBC2A02D
:010A4500228E
:100B3900E4FC120B56ED25E0FD30A103430501C28B
:0C0B4900A07F05120B5A0CBC08E8AF0599
:010B5500227D
:030BD300120A1AE9
:100BD600120B56A2A1E433FDC2A07F05120B5AAF39
:010BE6000509
:010BE70022EB
:100BA400C2A0EF24FF92A17F05120B5A120B56C26A
:080BB400A0D2A17F05020B5A3B
:100A4600120C8F7F90120BD37F41120BD3120C8F97
:100A56007F91120A1A120BD6120B39AD077F0112BB
:070A66000BA4120CACAF055C
:010A6D002266
:100C3800E4FEC297EF1392A3EFC313FFD2970EBE41
:020C480008F0B2
:010C4A002287
:100BE800C29300C29700D29300120C38AF05120CC2
:040BF80038C293224A
:1009E600E4FDC29300C29700D29300120C38E4FFD4
:1009F600C297EDC313FD30A303430580D2970FBF03
:100A060008EEC29300C29700D29700C2A300D2A3F9
:030A160000AF0529
:010A190022BA
:100ADF00E4FD7F8E120BE87F80120BE87F82120BF2
:0F0AEF00E87D087F84120BE87D807F8E020BE884
:100BFC007F851209E6EFC4540F75F00AA4FEEF547A
:030C0C000F2EFFA9
:010C0F0022C2
:100C10007F831209E6EFC4540F75F00AA4FEEF5467
:030C20000F2EFF95
:010C230022AE
:100C24007F811209E6EFC4540F75F00AA4FEEF5455
:030C34000F2EFF81
:010C3700229A
:040B70007F057E007F
:100B7400EF1FAA0670011E4A600BE4FDEDC3940C3E
:050B840050EE0D80F7AA
:010B89002249
:020AFE00A90746
:100B0000E4FBC294E9139294120B70D294E9C313DC
:0C0B1000F90BBB08ED7F057E00020B74A2
:100B8A00E4FBC294ECC313FCD29430940343048074
:090B9A00120B700BBB08EBAF0459
:010BA300222F
:100A6E00C200D2947F0C7E00120B74C2947F507E13
:100A7E0000120B74D2947F0A7E00120B74A2949211
:060A8E0000120B70A20033
:010A9400223F
:1009A900120A6E7FCC120AFE7F44120AFE120A6EE8
:1009B9007FCC120AFE7FBE120AFE120B8AA9071209
:1009C9000B8AEFFE7C00E429FFEC3EFEAD07FCE458
:0D09D9001202C1E4FBFA7980783D0201169C
:100C5E00C0F9A4B0999282F8809088C6868E8C894D
:010C6E00BFC6
:080CC1007F067ED3DEFEDFFC9E
:010CC9002208
:07000300AE071FEE70FA22A8
:100C4B008D80EFC43354E0FFE5A0541F4FF5A05344
:030C5B00A01F22B5
:100ABB00AE05EF14FF7401A807088002C333D8FCFE
:100ACB00FD7F06120C4BEE900C5E93FD7F07120C14
:040ADB004B020CC1FD
:100A9500AE05EF14FF7401A807088002C333D8FC24
:100AA500FD7F06120C4BEE900C5E932480FD7F07B4
:060AB500120C4B020CC103
:10001E00020366E86480F8E933E83360110460F0A7
:10002E00ED33EC337009E8FCE9FDEAFEEBFF220448
:10003E0060DED3EB9FEA9EE99DE8C2E78CF0C2F743
:10004E0095F0400CE8CCF8E9CDF9EACEFAEBCFFB0F
:10005E0012033185D0F05804700320D5B3E8047034
:10006E00075002B2D502037092D5EC0460F7E4CCCF
:10007E00C0E0C398F8603B94186008400DD0E0FBD8
:10008E00020348E4FBFAC9FC8028E830E406E4C920
:10009E00FBE4CAFCE830E305E4C9CACBFCE854072C
:1000AE006010F8C3E913F9EA13FAEB13FBEC13FC37
:1000BE00D8F130F52FC3E49CFCEF9BFFEE9AFEEDDA
:1000CE0099FDD0E0FBEF4E4D4C701222DB03020384
:1000DE006DEC2CFCEF33FFEE33FEED33FDED30E730
:1000EE00EB020348EF2BFFEE3AFEED39FDD0E0FBBD
:1000FE0050130BBB0003020370ED13FDEE13FEEF66
:08010E0013FFEC13FC0203488F
:10011600EC4D6011E8497017ED33EC3304600DE4E3
:10012600FCFFFEFD22E933E8330470F80203661291
:10013600033158046009E4CC248150062850090292
:10014600037028400302036DC0E0EB4A7044B98097
:1001560006D0E0FB02035CEF4E701CBD8008EBFF8F
:10016600EAFEE9FD80EBE98DF0A4FEE5F00201FF71
:10017600E9CDF9EAFEEBFFEF89F0A4FCE5F0CE89C4
:10018600F0A42EFFE435F0CD89F0A42DFEE435F081
:100196008067EF4E7005BD80D780C3EF8BF0A4ACAF
:1001A600F0EE8BF0A42CFCE435F0F8EF8AF0A42CEA
:1001B600E5F038FCE433CB8DF0A42CFCE5F03BF8FD
:1001C600EE8AF0A42CFCE5F038F8E433CF89F0A4ED
:1001D6002CFCE5F038CF3400CE89F0A42FFFE5F0F3
:1001E6003EFEE433C98DF0A42EFEE5F039CD8AF04B
:1001F600A42FFFE5F03EFEE43DFD33D0E0FB5007C3
:100206000BBB000F020370EC2CFCEF33FFEE33FE4A
:06021600ED33FD02034878
:10021C00020370EC5D046005E85904700302036688
:10022C00120331580460F6EC4860F2EC7004FDFEE9
:10023C00FF22C860DB2481C85009C39860025006B5
:10024C0002036D9850CAF582E9294B4A7005AB82BE
:10025C0002035C75F0007C1A7880C3EF9BEE9AED7C
:10026C0099400DC3EF9BFFEE9AFEED99FDE842F02D
:10027C00DC23ACF0D0E0FFD0E0FED0E0FDAB822080
:10028C00E7101BEB60BAEC2CFCEF33FFEE33FEED0A
:10029C0033FD020348E803F830E705C0F075F000C1
:1002AC00EF2FFFEE33FEED33FD40B830E7C280AAEE
:1002BC0075F020800E75F010800575F0087D007EBD
:1002CC00007F003392D530D5031203D0EC334010AD
:1002DC00EF33FFEE33FEED33FDEC33FCD5F0ED22C6
:0E02EC00E5F0247EA2D513CC92E7CDCEFF2202
:1002FA00EDD2E7CD33EC3392D524814006E4FFFEFC
:10030A00FDFC22FCE4CFCECDCC24E0501174FF805A
:10031A00EDC3CC13CCCD13CDCE13CECF13CF0470F7
:07032A00F030D5DE0203D024
:10033100E9D2E7C933E833F892D5EDD2E7CD33EC12
:0703410033FC5002B2D5228B
:10034800EC30E7100FBF000C0EBE00080DBD000416
:100358000BEB6014A2D5EB13FCED92E7FD2274FFC2
:10036800FCFDFEFF22E480F8A2D574FF13FC7D801B
:03037800E480EF2F
:10092900020BBCE493A3F8E493A34003F68001F21D
:1009390008DFF48029E493A3F85407240CC8C333CF
:10094900C4540F4420C8834004F456800146F6DF9E
:10095900E4800B0102040810204080900C7FE47EA3
:10096900019360BCA3FF543F30E509541FFEE49393
:10097900A360010ECF54C025E060A840B8E493A35A
:10098900FAE493A3F8E493A3C8C582C8CAC583CA85
:10099900F0A3C8C582C8CAC583CADFE9DEE780BE3D
:010C8E000065
:10037B00BC000BBE0029EF8DF084FFADF022E4CC66
:10038B00F875F008EF2FFFEE33FEEC33FCEE9DEC2F
:10039B00984005FCEE9DFE0FD5F0E9E4CEFD22ED75
:1003AB00F8F5F0EE8420D21CFEADF075F008EF2FBF
:1003BB00FFED33FD4007985006D5F0F222C398FDB0
:0503CB000FD5F0EA224D
:0E03D000C3E49FFFE49EFEE49DFDE49CFC223E
:00000001FF
