:03000000020BCF21
:0C0BCF00787FE4F6D8FD758155020C1605
:100CDC00043B3F8000000222000002380154013323
:100CEC000001252801321E012DFF013AFF013101BF
:100CFC00012401012F00012901012100012A000119
:050D0C002800012B008E
:100ECC00E4F589538E3F758C3C758AAFD2AFD2A9AD
:030EDC00D28C2293
:03000B00020741A8
:10074100C0E0C0F0C083C082C0D075D000C000C07E
:1007510001C002C003C004C005C006C007E52CC328
:1007610094FF5004052C8003752C00E53FC394FFD2
:100771005004053F8003753F00AC54AD55E41203AE
:100781002AC004C005C006C007AC38AD39E4120365
:100791002AD003D002D001D000120106E4FBFAF9FD
:1007A100784012020F7B177AB779D1783812010697
:1007B100C004C005C006C007AC22AD23EC12032A59
:1007C100D003D002D001D0001200151203638E268F
:1007D1008F27E52C20E06A120C5BAF257E00EF2409
:1007E100FBFDEE34FFFCC3E5279DEC6480F8E526B4
:1007F1006480984030EF2405FFEE33FED3E5279F58
:10080100EE6480F8E526648098501AAC32E4120355
:100811002FAB37AA36A935A8341202AC60025005B5
:100821007528018003752800E52B65286013E528EC
:10083100B401047D108002E4FD7F05120EDF8528DE
:100841002BE52C75F01384E5F0700B120CA58F3796
:100851008E368D358C34E52C75F01484E5F0702AD4
:10086100120DB78E548F55C3E526648094805006CF
:10087100752600752700E521B4010FAF330533EF6D
:1008810025E02440F8A62608A627E521B401100595
:100891002EE52EB47809753300752100752E00E51B
:1008A1002A6401600302099CE54145407003020985
:1008B1009CE52C30E00302099CE53325E02440F857
:1008C100E6FE08E6FFD3940AEE9400500375303338
:1008D100D3EF940AEE9400500302096FEF945AEE9D
:1008E1009400400302096FAB3EAA3DA93CA83BE43A
:1008F100FFFE7DA07C40120011E4FBFA79A0784252
:1009010012020FC004C005C006C007E53325E0246C
:1009110040F8E6FC08E6FDE412032AD003D002D039
:1009210001D000120106C004C005C006C007E4FFE3
:10093100FE7DB47C42AB3EAA3DA93CA83B12010618
:10094100E4FBFA794878C2120015E4FBFA79A07841
:100951004212020FD003D002D001D000120015E4E0
:10096100FBFA794C78421201061203638F30E533AA
:1009710025E02440F8E6FE08E6C3945AEE940040D0
:10098100037530FFAF30120E510533E53325E024F6
:1009910040F8E6FE08E64E7002F52AD007D006D0F0
:1009A10005D004D003D002D001D000D0D0D082D065
:0609B10083D0F0D0E0321B
:100C5B00E531B40117D3E52794FFE5266480948032
:100C6B005007E527F4F52D8003E4F52DE531B402AB
:100C7B0003752D7FE531B40310432DFEE52DF444B0
:100C8B00FEFFE52D44015FF52DE52D653A600AADBC
:0A0C9B002D7F04120EDF852D3A2292
:10047D00E53124FE70030205BB1470030205F5245B
:10048D00026003020740E4FFFE7D207C41AB37AAEA
:10049D0036A935A8341201061203638E088F09C3DD
:1004AD00E5099464E5089400400E7C007D64120318
:1004BD00E4AD077F01120D68AE08AF097C007D0A1F
:1004CD001203E47C007D0A1203E47F02120D3EAE9E
:1004DD0008AF097C007D0A1203E47F03120D687DCD
:1004ED000C7F04120D68E52F7069C3E52794E8E5CC
:1004FD0026648094834012AE26AF277C037DE812DC
:10050D000439AD077F05120D68C3E5279464E52610
:10051D00648094804017AE26AF277C007D64120462
:10052D00397C007D0A1204397F06120D68C3E52758
:10053D00940AE526648094804066AE26AF277C0041
:10054D007D0A1204397C007D0A1204397F07120DD1
:10055D0068804DC3E52794E8E526648094834012B6
:10056D00AE26AF277C037DE8120439AD077F051257
:10057D000D68AE26AF277C007D641204397C007DAA
:10058D000A1204397F06120D3EAE26AF277C007D80
:10059D000A1204397C007D0A1204397F07120D6896
:1005AD00AE26AF277C007D0A12043902073B7D0B76
:1005BD007F01120D68AD247F02120D68E524B40190
:1005CD0010E52575F00A84FD7F07120D68E525807D
:1005DD000EE53275F00A84FD7F07120D68E5327560
:1005ED00F00A84ADF002073B7D0A7F01120D68AD64
:1005FD00297F02120D68E5296401600302068DC38F
:10060D00E522648094805045C3E49523F509E49573
:10061D0022F508C3E509940AE50894007D0C4024F1
:10062D007F06120D68AE08AF097C007D0A1203E447
:10063D00AD077F07120D68AE08AF097C007D0A1269
:10064D0003E480377F07120D68AD09802E852208DF
:10065D00852309C3E509940AE50894004012AE0804
:10066D00AF097C007D0A1203E4AD077F07120D6808
:10067D00AE08AF097C007D0A1203E47F08120D68F5
:10068D00E52964027071C3E53994E8E538940340B7
:10069D0012AE38AF397C037DE81203E4AD077F0558
:1006AD00120D68C3E5399464E53894004017AE38EF
:1006BD00AF397C007D641203E47C007D0A1203E4F3
:1006CD007F06120D68C3E539940AE538940040178A
:1006DD00AE38AF397C007D0A1203E47C007D0A122E
:1006ED0003E47F07120D68AE38AF397C007D0A1226
:1006FD0003E47F08120D68E52964037036FFFE7D63
:10070D00207C41AB3EAA3DA93CA83B120106120339
:10071D00638E088F097C007D0A1203E4AD077F0705
:10072D00120D3EAE08AF097C007D0A1203E47F086E
:03073D00120D6832
:010740002296
:100DDB00753101E4F52F75252875321EF522F523A3
:100DEB00753801753954F53EF53D753C80753B3FC3
:010DFB0022D5
:1009B700E52164017003020BCEC2C4D2B3D2B2D216
:1009C700C220B31FE531C39403500405318003757A
:1009D7003101752401752901E4F52F20B3051204AF
:1009E7007D80F820B23FE531B4010CE52F60047F2C
:1009F7000080027F018F2FE531B4020EE524C394F6
:100A070002500405248003752401E531B4030EE583
:100A170029C3940350040529800375290120B205D1
:100A270012047D80F8C2C2D2B3D2B2D2C420B2229D
:100A370020B31FE4F53F20B20F20B30CE53FD3945A
:100A470028500512047D80EEE53FC3942840031229
:100A57000DDB30B303020B1CE531B4011DE4F533A4
:100A6700E53325E02440F8E4F608F60533E533B42A
:100A77000AEEE4F533F52E752101E531B4021DE5E3
:100A870024B4010FE525C3945A5011740A2525F59E
:100A9700258009E532C3945050020532E5316403DD
:100AA700706BE529B40118C3E523945AE5226480E5
:100AB7009480500B74052523F523E43522F522E5B0
:100AC70029B40216C3E5399406E5389427500B7408
:100AD7000A2539F539E43538F538E529B4032EE424
:100AE700FFFEFD7C40AB3EAA3DA93CA83B1202ACF1
:100AF700501BAF3EAE3DAD3CAC3B7BCD7ACC79CC09
:100B0700783D1200158F3E8E3D8D3C8C3B20B30502
:100B170012047D80F830B203020BCEE531B4010632
:100B2700E4F533752A01E531B4021DE524B4010F5C
:100B3700E525D3940A401174F62525F5258009E5A6
:100B470032D3940040021532E53164037071E52910
:100B5700B40119D3E52394A6E5226480947F400C61
:100B670074FB2523F52374FF3522F522E529B4020A
:100B770017D3E539940AE5389400400C74F6253903
:100B8700F53974FF3538F538E529B403327FCD7E62
:100B9700CC7D4C7C3EAB3EAA3DA93CA83B1202ACA7
:100BA700601D401BAF3EAE3DAD3CAC3B7BCD7ACC30
:100BB70079CC783D1200118F3E8E3D8D3C8C3B20C9
:080BC700B20512047D80F82242
:0E0F01007DFF7F04120EDFE4FD7F05020EDF90
:0E0F0F00120F01120ECC12047D1209B780F8E9
:040E3700D2A07F05C1
:100E3B00000000000000000000000000000000AEF9
:060E4B00071FEE70EB2210
:0F0EF200D2A1120E37C2A17F05120E3BC2A02261
:0C0F2A00C2A1120E37D2A17F05020E3BBF
:020D1200AD072B
:100D1400E4FCC2A07F05120E3BED30E704D2A180B3
:100D240002C2A17F05120E3BD2A0ED25E0FD7F0596
:090D3400120E3B0CBC08DBC2A04E
:010D3D002293
:100E1A00E4FC120E37ED25E0FD30A103430501C2C3
:0C0E2A00A07F05120E3B0CBC08E8AF05D1
:010E36002299
:030EB700120D1207
:100EBA00120E37A2A1E433FDC2A07F05120E3BAF8A
:010ECA000522
:010ECB002204
:100E9F00C2A0EF24FF92A17F05120E3B120E37C2A4
:080EAF00A0D2A17F05020E3B59
:100E5100AB07120EF27F90120EB77F43120EB7AF9F
:0A0E610003120D12120EBA020F2A3E
:040E6B007F057E0081
:100E6F00EF1FAA0670011E4A600BE4FDEDC3940C40
:050E7F0050EE0D80F7AC
:010E8400224B
:020DFC00A90745
:100DFE00E4FBC294E9139294120E6BD294E9C313DE
:0C0E0E00F90BBB08ED7F057E00020E6FA3
:100E8500E4FBC294ECC313FCD29430940343048076
:090E9500120E6B0BBB08EBAF045D
:010E9E002231
:100D9000C200D2947F0C7E00120E6FC2947F507EF0
:100DA00000120E6FD2947F0A7E00120E6FA29492F0
:060DB00000120E6BA20010
:010DB600221A
:100CA500120D907FCC120DFC7F44120DFC120D909D
:100CB5007FCC120DFC7FBE120DFC120E85A907120A
:100CC5000E85EFFEE9FFFDAC06E412032AE4FBFA0C
:070CD5007980783D02010661
:0D0F1D00C0F9A4B0999282F880908E8CBF2C
:0A0F3600EF1F70011E144E70F72229
:100EDF00EFC43354E0FFE5A0541F4FF5A08D8053AE
:030EEF00A01F221F
:100D6800AE05EF14FF7401A807088002C333D8FC4E
:100D7800FD7F06120EDFEE900F1D93FD7F07120E0A
:080D8800DF7FE87E03020F3655
:100D3E00AE05EF14FF7401A807088002C333D8FC78
:100D4E00FD7F06120EDFEE900F1D932480FD7F07B0
:0A0D5E00120EDF7FE87E03020F365D
:060F400000007F21DFFE2E
:010F46002288
:08000300D290120F40C29022BE
:100DB700E4F58DF58B120003D28E309103308FFA54
:100DC700C28E208F09AF8DEFFEAD8BEDFF22C28F54
:030DD700E4FEFF38
:010DDA0022F6
:10000E000203CFE86480F8E933E83360110460F04E
:10001E00ED33EC337009E8FCE9FDEAFEEBFF220458
:10002E0060DED3EB9FEA9EE99DE8C2E78CF0C2F753
:10003E0095F0400CE8CCF8E9CDF9EACEFAEBCFFB1F
:10004E0012039A85D0F05804700320D5B3E80470DB
:10005E00075002B2D50203D992D5EC0460F7E4CC76
:10006E00C0E0C398F8603B94186008400DD0E0FBE8
:10007E000203B1E4FBFAC9FC8028E830E406E4C9C7
:10008E00FBE4CAFCE830E305E4C9CACBFCE854073C
:10009E006010F8C3E913F9EA13FAEB13FBEC13FC47
:1000AE00D8F130F52FC3E49CFCEF9BFFEE9AFEEDEA
:1000BE0099FDD0E0FBEF4E4D4C701222DB03020394
:1000CE00D6EC2CFCEF33FFEE33FEED33FDED30E7D7
:1000DE00EB0203B1EF2BFFEE3AFEED39FDD0E0FB64
:1000EE0050130BBB00030203D9ED13FDEE13FEEF0D
:0800FE0013FFEC13FC0203B137
:10010600EC4D6011E8497017ED33EC3304600DE4F3
:10011600FCFFFEFD22E933E8330470F80203CF1238
:10012600039A58046009E4CC248150062850090239
:1001360003D92840030203D6C0E0EB4A7044B980D5
:1001460006D0E0FB0203C5EF4E701CBD8008EBFF36
:10015600EAFEE9FD80EBE98DF0A4FEE5F00201EF91
:10016600E9CDF9EAFEEBFFEF89F0A4FCE5F0CE89D4
:10017600F0A42EFFE435F0CD89F0A42DFEE435F091
:100186008067EF4E7005BD80D780C3EF8BF0A4ACBF
:10019600F0EE8BF0A42CFCE435F0F8EF8AF0A42CFA
:1001A600E5F038FCE433CB8DF0A42CFCE5F03BF80D
:1001B600EE8AF0A42CFCE5F038F8E433CF89F0A4FD
:1001C6002CFCE5F038CF3400CE89F0A42FFFE5F003
:1001D6003EFEE433C98DF0A42EFEE5F039CD8AF05B
:1001E600A42FFFE5F03EFEE43DFD33D0E0FB5007D3
:1001F6000BBB000F0203D9EC2CFCEF33FFEE33FEF2
:06020600ED33FD0203B11F
:10020C000203D9EC5D046005E8590470030203CFC6
:10021C0012039A580460F6EC4860F2EC7004FDFE90
:10022C00FF22C860DB2481C85009C39860025006C5
:10023C000203D69850CAF582E9294B4A7005AB8265
:10024C000203C575F0007C1A7880C3EF9BEE9AED23
:10025C0099400DC3EF9BFFEE9AFEED99FDE842F03D
:10026C00DC23ACF0D0E0FFD0E0FED0E0FDAB822090
:10027C00E7101BEB60BAEC2CFCEF33FFEE33FEED1A
:10028C0033FD0203B1E803F830E705C0F075F00068
:10029C00EF2FFFEE33FEED33FD40B830E7C280AAFE
:1002AC0074F8CC6480CCC86480C8F58204604FC3F9
:1002BC00EB9FF5F0EA9E42F0E99D42F0E89C45F098
:1002CC00603C501DE5825FFFE582D313CB5BCBF422
:1002DC002B5582FB50280ABA002409B9002008804B
:1002EC001DE5825BFBE582D313CF5FCFF4C3132FE5
:1002FC005582FF50090EBE00050DBD00010CC3EB6D
:10030C009FF5F0EA9E42F0E99D42F0E89C45F060D2
:09031C0007CC4820E701B3EC22F4
:1003250075F020800E75F010800575F0087D007E53
:10033500007F003392D530D50312046FEC334010A3
:10034500EF33FFEE33FEED33FDEC33FCD5F0ED225C
:0E035500E5F0247EA2D513CC92E7CDCEFF2298
:10036300EDD2E7CD33EC3392D524814006E4FFFE92
:10037300FDFC22FCE4CFCECDCC24E0501174FF80F1
:10038300EDC3CC13CCCD13CDCE13CECF13CF04708E
:07039300F030D5DE02046F1B
:10039A00E9D2E7C933E833F892D5EDD2E7CD33ECA9
:0703AA0033FC5002B2D52222
:1003B100EC30E7100FBF000C0EBE00080DBD0004AD
:1003C1000BEB6014A2D5EB13FCED92E7FD2274FF59
:1003D100FCFDFEFF22E480F8A2D574FF13FC7D80B2
:0303E100E480EFC6
:100BDB00020F0FE493A3F8E493A34003F68001F212
:100BEB0008DFF48029E493A3F85407240CC8C3331B
:100BFB00C4540F4420C8834004F456800146F6DFEA
:100C0B00E4800B0102040810204080900CDCE47E91
:100C1B00019360BCA3FF543F30E509541FFEE493DE
:100C2B00A360010ECF54C025E060A840B8E493A3A5
:100C3B00FAE493A3F8E493A3C8C582C8CAC583CAD0
:100C4B00F0A3C8C582C8CAC583CADFE9DEE780BE88
:010D110000E1
:1003E400BC000BBE0029EF8DF084FFADF022E4CCFD
:1003F400F875F008EF2FFFEE33FEEC33FCEE9DECC6
:10040400984005FCEE9DFE0FD5F0E9E4CEFD22ED0B
:10041400F8F5F0EE8420D21CFEADF075F008EF2F55
:10042400FFED33FD4007985006D5F0F222C398FD46
:050434000FD5F0EA22E3
:10043900C2D5EC30E709B2D5E4C39DFDE49CFCEEDE
:1004490030E715B2D5E4C39FFFE49EFE1203E4C36F
:10045900E49DFDE49CFC80031203E430D507C3E46A
:060469009FFFE49EFE224D
:0E046F00C3E49FFFE49EFEE49DFDE49CFC229E
:00000001FF
